S01700004763634170706C69636174696F6E312E737265635B
S113000012C019C018C017C016C015C014C013C040
S113001012C011C010C00FC00EC00DC00CC00BC068
S11300200AC009C008C011241FBECFE5D4E0DEBF5A
S1130030CDBF12D028C0E4CF80B38F3F19F481E044
S113004082BB089582B390E0880F991F880F991F8F
S113005092B3892B82BB08958FEF81BB81E082BB71
S113006083B7856083BF12BE20E030E022303105C3
S113007019F4E2DF20E030E082B78F3FB9F72F5F59
S10D00803F4F12BEF3CFF894FFCFF8
S9030000FC
