S01700004763634170706C69636174696F6E312E737265635B
S113000012C02CC02BC02AC029C028C027C026C0BB
S113001064C024C023C022C021C020C01FC01EC091
S11300201DC01CC01BC011241FBECFE5D4E0DEBF21
S1130030CDBF10E0A0E6B0E0EAE3F7E002C005902F
S11300400D92A436B107D9F720E0A4E6B0E001C0D0
S11300501D92A63BB207E1F787D06DC3D1CF83B71A
S1130060816083BF03C085B3846085BB82B78F3F43
S1130070D1F785B38B7F85BB12BE83B78E7F83BFD9
S1130080089588E382BBEBDF8EE082BBE8DF86E085
S113009082BBE5DF089582BBE2DF08950F931F93CF
S11300A0CF93DF938C0185B3816085BBC0E0D0E042
S11300B002C0F1DF2196F801EC0FFD1F8081811150
S11300C0F8CF85B38E7F85BBDF91CF911F910F91C0
S11300D0089581E082BBC3DF08951F920F920FB68B
S11300E00F9211242F933F934F935F936F937F93BA
S11300F08F939F93AF93BF93EF93FF9388B38160E4
S113010088BB80916400909165000296909365008D
S113011080936400DEDF809165008F93809164009A
S11301208F9380E690E09F938F9386E690E09F9371
S11301308F9329D086E690E0B1DF0F900F900F9057
S11301400F900F900F90FF91EF91BF91AF919F91FE
S11301508F917F916F915F914F913F912F910F906C
S11301600FBE0F901F90189581E087BB87E084BB7A
S11301708FEF81BB86DF89B7846089BF78948EB5A1
S113018081608EBDFFCFAEE0B0E0E8ECF0E0AAC243
S11301900D891E8986E08C831A8309838FEF9FE77C
S11301A09E838D83AE01475E5F4F6F89788DCE014C
S11301B0019608D0EF81F885E00FF11F10822E968A
S11301C0E4E0ACC2ABE0B0E0E7EEF0E07DC26C018D
S11301D07B018A01FC0117821682838181FFBFC1E2
S11301E0CE0101963C01F6019381F70193FD8591BF
S11301F093FF81917F01882309F4ADC1853239F4DD
S113020093FD859193FF81917F01853221F4B6019D
S113021090E0C0D1E8CF912C212C312CFFE1F315D3
S1130220D8F08B3279F038F4803279F08332A1F44B
S1130230232D20611DC08D3261F0803369F4232D9C
S1130240216016C0832D8260382EE32DE4603E2E9B
S11302502AC0F32DF8601DC037FC2DC020ED280FF7
S11302602A3040F08E32B9F436FC75C1232D206457
S1130270322E19C036FE06C08AE0989E200D112445
S1130280922E11C0EAE02E9E200D1124222EF32D71
S1130290F0623F2E08C08C3621F4832D8068382EFE
S11302A002C0883641F4F70193FD859193FF819153
S11302B07F018111B3CF982F9F7D9554933028F4FB
S11302C00C5F1F4F9FE399830DC0833631F0833752
S11302D071F0833509F055C020C0F801808189830D
S11302E00E5F1F4F88248394912C530112C0280160
S11302F0F2E04F0E511CF801A080B18036FE03C01D
S1130300692D70E002C06FEF7FEFC50138D14C0159
S11303108201F32DFF773F2E15C0280122E0420E03
S1130320511CF801A080B18036FE03C0692D70E035
S113033002C06FEF7FEFC50117D14C01F32DF068B8
S11303403F2E820133FC19C0822D90E08816990655
S1130350A0F4B60180E290E01DD12A94F5CFF50116
S113036037FC859137FE81915F01B60190E012D18F
S113037021102A9421E0821A91088114910479F7BA
S1130380E1C0843611F0893639F5F80137FE07C02B
S113039060817181828193810C5F1F4F08C06081ED
S11303A07181072E000C880B990B0E5F1F4FF32DE4
S11303B0FF763F2E97FF09C09095809570956195C3
S11303C07F4F8F4F9F4FF0683F2E2AE030E0A3010C
S11303D01DD1882E861844C0853731F4232D2F7EF5
S11303E0B22E2AE030E025C0932D997FB92E8F36A6
S11303F0C1F018F4883579F0AEC0803719F0883729
S113040021F0A9C0E92FE061BE2EB4FE0DC0FB2D82
S1130410F460BF2E09C034FE0AC0292F2660B22E14
S113042006C028E030E005C020E130E002C020E151
S113043032E0F801B7FE07C0608171818281938147
S11304400C5F1F4F06C06081718180E090E00E5FF9
S11304501F4FA301DBD0882E8618FB2DFF773F2E7C
S113046036FE0DC0232D2E7FA22E891458F434FE9F
S11304700BC032FC09C0832D8E7EA82E05C0B82C7B
S1130480A32C03C0B82C01C0B92CA4FE0FC0FE01DC
S1130490E80DF11D8081803321F49A2D997EA92ED7
S11304A009C0A2FE06C0B394B39404C08A2D867812
S11304B009F0B394A3FC10C0A0FE06C0B21480F4EB
S11304C0280C922C9B180DC0B21458F4B60180E28B
S11304D090E060D0B394F8CFB21418F42B1802C093
S11304E0982C212CA4FE0FC0B60180E390E052D0DA
S11304F0A2FE16C0A1FC03C088E790E002C088E514
S113050090E0B6010CC08A2D867851F0A1FE02C09D
S11305108BE201C080E2A7FC8DE2B60190E03AD004
S1130520891430F4B60180E390E034D09A94F8CF83
S11305308A94F301E80DF11D8081B60190E02AD080
S11305408110F6CF222009F44ECEB60180E290E06D
S113055021D02A94F7CFF6018681978102C08FEFCC
S11305609FEF2B96E2E1CCC0FC01059061507040F6
S11305700110D8F7809590958E0F9F1F0895FC0168
S11305806150704001900110D8F7809590958E0FBE
S11305909F1F08950F931F93CF93DF93FB01238134
S11305A021FD03C08FEF9FEF2CC022FF16C04681B0
S11305B05781248135814217530744F4A081B181C6
S11305C09D012F5F3F4F318320838C932681378198
S11305D02F5F3F4F3783268314C08B01EC01FB014F
S11305E00084F185E02D0995892BE1F6D801169652
S11305F08D919C911797019617969C938E931697BD
S1130600CE01DF91CF911F910F910895FA01AA278E
S1130610283051F1203181F1E8946F936E7F6E5F41
S11306207F4F8F4F9F4FAF4FB1E03ED0B4E03CD0EF
S1130630670F781F891F9A1FA11D680F791F8A1FD2
S1130640911DA11D6A0F711D811D911DA11D20D039
S113065009F468943F912AE0269F11243019305DF3
S11306603193DEF6CF010895462F4770405D4193E4
S1130670B3E00FD0C9F7F6CF462F4F70405D4A3331
S113068018F0495D31FD4052419302D0A9F7EACFF9
S1130690B4E0A6959795879577956795BA95C9F728
S11306A000976105710508959B01AC010A2E06941B
S11306B05795479537952795BA95C9F7620F731FD4
S11306C0841F951FA01D08952F923F924F925F9211
S11306D06F927F928F929F92AF92BF92CF92DF924E
S11306E0EF92FF920F931F93CF93DF93CDB7DEB7B3
S11306F0CA1BDB0B0FB6F894DEBF0FBECDBF099447
S11307002A88398848885F846E847D848C849B849D
S1130710AA84B984C884DF80EE80FD800C811B81AB
S1130720AA81B981CE0FD11D0FB6F894DEBF0FBEDA
S10D0730CDBFED010895F894FFCF4A
S107073A256400002E
S9030000FC
