:1000000012C024C023C022C021C020C01FC01EC0F7
:100010001DC01CC01BC01AC019C018C017C016C014
:1000200015C014C013C011241FBECFE5D4E0DEBF3D
:10003000CDBF10E0A0E6B0E0ECEEF0E002C005902D
:100040000D92AA37B107D9F740D04EC0D9CF83B7A8
:10005000816083BF03C085B3846085BB82B78F3F57
:10006000D1F785B38B7F85BB12BE83B78E7F83BFED
:10007000089588E382BBEBDF8EE082BBE8DF86E099
:1000800082BBE5DF089582BBE2DF08950F931F93E3
:10009000CF93DF938C0185B3816085BBC0E0D0E056
:1000A00002C0F1DF2196F801EC0FFD1F8081811164
:1000B000F8CF85B38E7F85BBDF91CF911F910F91D4
:1000C000089580EC82BBC3DF089587E084BB8FEF87
:1000D00081BBCFDF80E690E0D9DFF3DF8DE690E0F3
:0C00E000D5DF80E090E00895F894FFCF99
:1000EC0048656C6C6F20776F726C64210049276DCA
:0A00FC0020476F6B686C696100001B
:00000001FF
