:1000000012C019C018C017C016C015C014C013C044
:1000100012C011C010C00FC00EC00DC00CC00BC06C
:100020000AC009C008C011241FBECFE5D4E0DEBF5E
:10003000CDBF41D049C0E4CF92B381E0892782BBD4
:100040002FE788E391E0215080409040E1F700C025
:100050000000089526E030E024C042B381E090E043
:10006000022E02C0880F991F0A94E2F7942F982B52
:1000700092BB4FE956E861E0415050406040E1F7E3
:1000800000C0000092B38095892382BB8FE996E877
:1000900041E0815090404040E1F700C000002F5FF8
:1000A0003F4F28303105CCF20895B09902C0D2DF1D
:1000B0000895C2DF08958FEF81BB12BA17BA88B3D3
:0C00C000816088BBF2DFFECFF894FFCF18
:00000001FF
