S01700004763634170706C69636174696F6E312E737265635B
S113000012C019C018C017C016C015C014C013C040
S113001012C011C010C00FC00EC00DC00CC00BC068
S11300200AC009C008C011241FBECFE5D4E0DEBF5A
S1130030CDBF02D037C0E4CF8FEF87BB18BA81BBE6
S113004012BA1EBC8EB583608EBD1DBC1CBC20E0E4
S113005030E08CB59DB5892B11F48AEA82BB8CB54E
S11300609DB58115904821F412BA82B3816882BB90
S11300708CB59DB5883D964D29F48FEF82BB88B32E
S11300808E7F88BB8CB59DB5019629F412BA2F5F7B
S11300903F4F1DBC1CBC23303105D9F688B38160A9
S10B00A088BBD5CFF894FFCF13
S9030000FC
