:100000000C9434000C9451000C9451000C94510049
:100010000C9451000C9451000C9451000C9451001C
:100020000C9451000C9451000C9451000C9451000C
:100030000C9451000C9451000C9451000C945100FC
:100040000C9451000C9451000C9451000C945100EC
:100050000C9451000C9451000C9451000C945100DC
:100060000C9451000C94510011241FBECFEFD8E026
:10007000DEBFCDBF11E0A0E0B1E0E8EFF5E002C0E7
:1000800005900D92A031B107D9F721E0A0E1B1E0D0
:1000900001C01D92A231B207E1F70E9463020C94E5
:1000A000FA020C9400001092B9008DEF8093B80012
:1000B000089594EA9093BC009091BC009923E4F7D2
:1000C0009091B900987F983011F0903191F480931D
:1000D000BB0084E88093BC008091BC008823E4F7D7
:1000E0008091B900887F883131F0803431F480E02C
:1000F000089581E0089580E0089581E0089584E9FD
:100100008093BC008091BC0084FDFCCF0895809357
:10011000BB0084E88093BC008091BC008823E4F796
:100120008091B900887F883211F081E0089580E0E5
:100130000895CF93882331F08091100181608093DE
:10014000100105C0809110018E7F80931001809175
:1001500010018260809310016091100180E00E9484
:10016000A60262E080E00E94F20200C064E080E04B
:100170000E948F02C82FC295C07F62E080E00E947B
:10018000F60200C062E080E00E94F20200C064E07B
:1001900080E00E948F028F70C82B62E080E00E9496
:1001A000F6028C2FCF91089580E00E949900882359
:1001B000DCF300C080E00E949900089562E080E0D6
:1001C0000E94F20200C062E080E00E94F602089500
:1001D000CF93C82F662331F0809110018160809306
:1001E000100105C0809110018E7F809310018091D5
:1001F00010018D7F809310016091100180E00E94BA
:10020000A602809110018F778093100180911001D8
:100210008F7B80931001809110018F7D809310015E
:10022000809110018F7E80931001CC232CF480915B
:100230001001806880931001C6FF05C080911001F5
:10024000806480931001C5FF05C080911001806219
:1002500080931001C4FF05C08091100180618093DC
:1002600010016091100180E00E94A6020E94DE0051
:10027000809110018F7780931001809110018F7B06
:1002800080931001809110018F7D809310018091E7
:1002900010018F7E80931001C3FF05C08091100173
:1002A000806880931001C2FF05C0809110018064B6
:1002B00080931001C1FF05C080911001806280937E
:1002C0001001C0FF05C08091100180618093100172
:1002D0006091100180E00E94A6020E94DE008091E1
:1002E00010018061809310018091100180628093E1
:1002F00010018091100180648093100180911001A1
:100300008068809310016091100180E00E94A60235
:10031000CF910895CF93C82F0E94D40060E08C2F16
:100320000E94E800CF910895611104C080580E9496
:100330008A010895613021F480540E948A01089551
:10034000623021F480570E948A01089580530E94F0
:100350008A01089581E00E948A010895882331F07E
:1003600080911001877F8093100105C0809110015A
:100370008860809310016091100180E00E94A602C5
:10038000089582E00E948A010895CF93C82F0E94A9
:10039000D400CA30A1F4803148F090EC980F90312D
:1003A00038F08051803330F480E505C080E403C02C
:1003B00080E101C080E080580E948A0121C0803124
:1003C00029F460E080EC0E94E80014C0803529F434
:1003D00060E080E90E94E8000DC0803229F460E00E
:1003E00080ED0E94E80006C0803621F460E080E8DD
:1003F0000E94E8000E94D40061E08C2F0E94E80077
:10040000CF910895CF93DF93FC0103C00E94C501F3
:10041000FE01EF01219680818111F8CFDF91CF910C
:1004200008951F93CF93DF93182F0E947E0210929E
:1004300010016091100180E00E94A60280EA9FE016
:100440000197F1F7809110018062809310018091F3
:1004500010018061809310016091100180E00E9482
:10046000A6020E94DE0080EE94E00197F1F70E9460
:10047000DE00C0E1D0E0CE010197F1F70E94DE007E
:10048000CE010197F1F7809110018F7E80931001CA
:100490006091100180E00E94A6020E94DE00219778
:1004A000F1F788E20E948A0188E00E948A010E9496
:1004B000AA0186E00E948A01812F0E948A01DF91B1
:1004C000CF911F9108958DE00E9411020E94C101F9
:1004D00080E00E94AE0160E080E00E94940180E034
:1004E00091E00E94020261E080E00E94940188E0B5
:1004F00091E00E9402020E94C101FFCF0E945300BE
:1005000083E08A95F1F7000080E006C0E82FF0E074
:10051000EF5EFE4F10828F5F8823C1F30895811133
:1005200011C0683088F4E82FF0E0EF5EFE4F808164
:10053000082E000C990B02C0959587956A95E2F7F5
:10054000817008958FEF08958FEF0895CF938111F3
:1005500011C0C62FE82FF0E0EF5EFE4F6083895D8B
:10056000880F0E9459008C2F0E9487000E947F00F4
:1005700080E001C08FEFCF910895CF93DF93811179
:100580002BC0683058F5282F30E0F901EF5EFE4FA0
:100590009081442349F0C1E0D0E002C0CC0FDD1FC0
:1005A0006A95E2F7C92B09C0C1E0D0E002C0CC0FC8
:1005B000DD1F6A95E2F7C095C923F901EF5EFE4F92
:1005C000C083895D880F0E9459008C2F0E9487008C
:1005D0000E947F0080E003C08FEF01C08FEFDF91AA
:1005E000CF91089541E00E94BD02089540E00E942D
:0805F000BD020895F894FFCF4D
:1005F8004C696E69612031004C696E696120320076
:00000001FF
