:100000000C9434000C9451000C9451000C94510049
:100010000C9451000C9451000C9451000C9451001C
:100020000C9451000C9451000C9451000C9451000C
:100030000C9451000C9451000C9451000C945100FC
:100040000C9451000C9451000C9451000C945100EC
:100050000C9451000C9451000C9451000C945100DC
:100060000C9451000C94510011241FBECFEFD8E026
:10007000DEBFCDBF11E0A0E0B1E0E0E6FCE002C0F1
:1000800005900D92A831B107D9F721E0A8E1B1E0C0
:1000900001C01D92AA31B207E1F70E9493020C94AD
:1000A0002E060C9400001092B90088E48093B800EA
:1000B000089594EA9093BC009091BC009923E4F7D2
:1000C0009091B900987F983011F0903191F480931D
:1000D000BB0084E88093BC008091BC008823E4F7D7
:1000E0008091B900887F883131F0803431F480E02C
:1000F000089581E0089580E0089581E0089584E9FD
:100100008093BC008091BC0084FDFCCF0895809357
:10011000BB0084E88093BC008091BC008823E4F796
:100120008091B900887F883211F081E0089580E0E5
:100130000895CF93882331F08091180181608093D6
:10014000180105C0809118018E7F8093180180915D
:1001500018018260809318016091180180E00E946C
:10016000F00262E080E00E943C0300C064E080E0B6
:100170000E94D902C82FC295C07F62E080E00E9431
:10018000400300C062E080E00E943C0300C064E0E5
:1001900080E00E94D9028F70C82B62E080E00E944C
:1001A00040038C2FCF91089580E00E94990088230E
:1001B000DCF388E090E00197F1F780E00E9499007D
:1001C000089562E080E00E943C0300C062E080E0AD
:1001D0000E9440030895CF93C82F662331F0809189
:1001E000180181608093180105C0809118018E7FED
:1001F00080931801809118018D7F80931801609180
:10020000180180E00E94F002809118018F7780939E
:100210001801809118018F7B80931801809118013B
:100220008F7D80931801809118018F7E8093180133
:10023000CC232CF480911801806880931801C6FFAC
:1002400005C080911801806480931801C5FF05C026
:1002500080911801806280931801C4FF05C08091CD
:1002600018018061809318016091180180E00E945C
:10027000F0020E94E100809118018F7780931801AD
:10028000809118018F7B80931801809118018F7DD8
:1002900080931801809118018F7E80931801C3FF0D
:1002A00005C080911801806880931801C2FF05C0C5
:1002B00080911801806480931801C1FF05C080916E
:1002C0001801806280931801C0FF05C08091180159
:1002D0008061809318016091180180E00E94F00213
:1002E0000E94E10080911801806180931801809143
:1002F00018018062809318018091180180648093B6
:10030000180180911801806880931801609118018C
:1003100080E00E94F002CF910895CF93C82F0E94F1
:10032000D40060E08C2F0E94EB00CF910895611102
:1003300004C080580E948D010895613021F48054DA
:100340000E948D010895623021F480570E948D0132
:10035000089580530E948D01089581E00E948D01CF
:100360000895882331F080911801877F80931801C8
:1003700005C0809118018860809318016091180170
:1003800080E00E94F002089582E00E948D010895AD
:10039000CF93C82F0E94D400CA30A1F4803148F016
:1003A00090EC980F903138F08051803330F480E534
:1003B00005C080E403C080E101C080E080580E9455
:1003C0008D0121C0803129F460E080EC0E94EB00B7
:1003D00014C0803529F460E080E90E94EB000DC074
:1003E000803229F460E080ED0E94EB0006C0803688
:1003F00021F460E080E80E94EB000E94D40061E0FC
:100400008C2F0E94EB00CF910895CF93DF93FC01D6
:1004100003C00E94C801FE01EF0121968081811175
:10042000F8CFDF91CF9108951F93CF93DF93182FCB
:100430000E94C802109218016091180180E00E9489
:10044000F00280E09AEF0197F1F780911801806245
:100450008093180180911801806180931801609148
:10046000180180E00E94F0020E94E10080E09EE41A
:100470000197F1F70E94E100C0E0D1E0CE010197C1
:10048000F1F70E94E100CE010197F1F78091180188
:100490008F7E809318016091180180E00E94F00225
:1004A0000E94E1002197F1F788E20E948D0188E027
:1004B0000E948D010E94AD0186E00E948D01812F76
:1004C0000E948D01DF91CF911F9108950F931F938B
:1004D000CF93DF93CDB7DEB7DA950FB6F894DEBFD2
:1004E0000FBECDBF9F938F9380E091E09F938F933A
:1004F0008E010F5F1F4F1F930F930E944403C8018B
:100500000E9405020F900F900F900F900F900F9088
:10051000D3950FB6F894DEBF0FBECDBFDF91CF915C
:100520001F910F9108958DE00E9414020E94C40152
:1005300080E00E94B10160E080E00E94970183E0CA
:1005400091E00E9405022FEF83ED90E3215080405F
:100550009040E1F700C000000E94AD01C0E00E94A1
:10056000C4018FE091E00E94050260E088E00E94F3
:1005700097018C2F90E00E946602CF5F2FEF83EDF2
:1005800090E3215080409040E1F700C00000E7CFA9
:100590000E94530085E38A95F1F7000080E006C0D1
:1005A000E82FF0E0E75EFE4F10828F5F8823C1F3F3
:1005B0000895811111C0683088F4E82FF0E0E75EFB
:1005C000FE4F8081082E000C990B02C095958795EF
:1005D0006A95E2F7817008958FEF08958FEF08957F
:1005E000CF93811111C0C62FE82FF0E0E75EFE4FD8
:1005F0006083895D880F0E9459008C2F0E948700BC
:100600000E947F0080E001C08FEFCF910895CF93CB
:10061000DF9381112BC0683058F5282F30E0F901A5
:10062000E75EFE4F9081442349F0C1E0D0E002C074
:10063000CC0FDD1F6A95E2F7C92B09C0C1E0D0E0FD
:1006400002C0CC0FDD1F6A95E2F7C095C923F901FE
:10065000E75EFE4FC083895D880F0E9459008C2F92
:100660000E9487000E947F0080E003C08FEF01C0DE
:100670008FEFDF91CF91089541E00E940703089525
:1006800040E00E9407030895AEE0B0E0EAE4F3E042
:100690000C9405060D891E8986E08C831A830983D4
:1006A0008FEF9FE79E838D83AE01475E5F4F6F891B
:1006B000788DCE0101960E946603EF81F885E00FE8
:1006C000F11F10822E96E4E00C942106ABE0B0E01E
:1006D000ECE6F3E00C94F7056C017B018A01FC0168
:1006E00017821682838181FFCCC1CE0101963C0125
:1006F000F6019381F70193FD859193FF81917F012D
:10070000882309F4BAC1853239F493FD859193FFAA
:1007100081917F01853229F4B60190E00E945D0548
:10072000E7CF912C212C312CFFE1F315D8F08B323F
:1007300079F038F4803279F08332A1F4232D2061EE
:100740001DC08D3261F0803369F4232D216016C005
:10075000832D8260382EE32DE4603E2E2AC0F32DD7
:10076000F8601DC037FC2DC020ED280F2A3040F066
:100770008E32B9F436FC81C1232D2064322E19C08B
:1007800036FE06C08AE0989E200D1124922E11C0DC
:10079000EAE02E9E200D1124222EF32DF0623F2E32
:1007A00008C08C3621F4832D8068382E02C088362C
:1007B00041F4F70193FD859193FF81917F018111B0
:1007C000B3CF982F9F7D9554933028F40C5F1F4F23
:1007D0009FE399830DC0833631F0833771F0833501
:1007E00009F059C021C0F801808189830E5F1F4F35
:1007F00088248394912C530113C02801F2E04F0EFA
:10080000511CF801A080B18036FE03C0692D70E054
:1008100002C06FEF7FEFC5010E9452054C018201BB
:10082000F32DFF773F2E16C0280122E0420E511C07
:10083000F801A080B18036FE03C0692D70E002C0CF
:100840006FEF7FEFC5010E9447054C01F32DF06863
:100850003F2E820133FC1BC0822D90E08816990642
:10086000B0F4B60180E290E00E945D052A94F4CFD6
:10087000F50137FC859137FE81915F01B60190E06B
:100880000E945D0521102A9421E0821A91088114AA
:10089000910471F7E8C0843611F0893641F5F8010A
:1008A00037FE07C060817181828193810C5F1F4F89
:1008B00008C060817181072E000C880B990B0E5FB8
:1008C0001F4FF32DFF763F2E97FF09C0909580951F
:1008D000709561957F4F8F4F9F4FF0683F2E2AE0B4
:1008E00030E0A3010E949905882E861845C08537FF
:1008F00031F4232D2F7EB22E2AE030E025C0932D37
:10090000997FB92E8F36C1F018F4883579F0B5C0CB
:10091000803719F0883721F0B0C0E92FE061BE2E92
:10092000B4FE0DC0FB2DF460BF2E09C034FE0AC01A
:10093000292F2660B22E06C028E030E005C020E155
:1009400030E002C020E132E0F801B7FE07C060816C
:100950007181828193810C5F1F4F06C0608171811C
:1009600080E090E00E5F1F4FA3010E949905882E42
:100970008618FB2DFF773F2E36FE0DC0232D2E7FD0
:10098000A22E891458F434FE0BC032FC09C0832D0A
:100990008E7EA82E05C0B82CA32C03C0B82C01C095
:1009A000B92CA4FE0FC0FE01E80DF11D808180333B
:1009B00021F49A2D997EA92E09C0A2FE06C0B394F7
:1009C000B39404C08A2D867809F0B394A3FC11C0B7
:1009D000A0FE06C0B21488F4280C922C9B180EC0FE
:1009E000B21460F4B60180E290E00E945D05B39419
:1009F000F7CFB21418F42B1802C0982C212CA4FEA7
:100A000010C0B60180E390E00E945D05A2FE17C011
:100A1000A1FC03C088E790E002C088E590E0B60141
:100A20000CC08A2D867859F0A1FE02C08BE201C06D
:100A300080E2A7FC8DE2B60190E00E945D0589147A
:100A400038F4B60180E390E00E945D059A94F7CFF8
:100A50008A94F301E80DF11D8081B60190E00E94B7
:100A60005D058110F5CF222009F442CEB60180E267
:100A700090E00E945D052A94F6CFF6018681978169
:100A800002C08FEF9FEF2B96E2E10C941306FC015E
:100A90000590615070400110D8F7809590958E0FA9
:100AA0009F1F0895FC016150704001900110D8F71C
:100AB000809590958E0F9F1F08950F931F93CF934E
:100AC000DF93FB01238121FD03C08FEF9FEF2CC03B
:100AD00022FF16C046815781248135814217530772
:100AE00044F4A081B1819D012F5F3F4F318320836A
:100AF0008C93268137812F5F3F4F3783268314C025
:100B00008B01EC01FB010084F185E02D0995892B17
:100B1000E1F6D80116968D919C911797019617963C
:100B20009C938E931697CE01DF91CF911F910F91D9
:100B30000895FA01AA27283051F1203181F1E89473
:100B40006F936E7F6E5F7F4F8F4F9F4FAF4FB1E0C0
:100B50003ED0B4E03CD0670F781F891F9A1FA11DBB
:100B6000680F791F8A1F911DA11D6A0F711D811DBC
:100B7000911DA11D20D009F468943F912AE0269F81
:100B800011243019305D3193DEF6CF010895462FE0
:100B90004770405D4193B3E00FD0C9F7F6CF462FC1
:100BA0004F70405D4A3318F0495D31FD405241932A
:100BB00002D0A9F7EACFB4E0A695979587957795E7
:100BC0006795BA95C9F700976105710508959B016E
:100BD000AC010A2E06945795479537952795BA95F7
:100BE000C9F7620F731F841F951FA01D08952F92D0
:100BF0003F924F925F926F927F928F929F92AF92AD
:100C0000BF92CF92DF92EF92FF920F931F93CF93F9
:100C1000DF93CDB7DEB7CA1BDB0B0FB6F894DEBF90
:100C20000FBECDBF09942A88398848885F846E84B6
:100C30007D848C849B84AA84B984C884DF80EE8000
:100C4000FD800C811B81AA81B981CE0FD11D0FB609
:100C5000F894DEBF0FBECDBFED010895F894FFCF2D
:100C600025640048656C6C6F2065707461210043D9
:080C70006F756E74203D200039
:00000001FF
