:1000000019C0D4C0ADC01EC01DC01CC01BC01AC0CA
:1000100019C018C017C016C015C014C013C012C034
:1000200011C010C07AC00EC00DC00CC00BC00AC0F9
:1000300009C008C011241FBECFEFD2E0DEBFCDBF84
:10004000DBD0DEC0DDCF8CE08093C400E0ECF0E0DC
:10005000808182608083E1ECF0E080818861808330
:1000600008959091C00095FFFCCF8093C60008953D
:100070008091C00088231CF48091C60008958FEF02
:10008000089585B1836085B92FE986E891E0215014
:1000900080409040E1F700C0000085B18E7F85B9B7
:1000A00085B18D7F85B92FE986E891E021508040A8
:1000B0009040E1F700C0000085B1836085B90895E4
:1000C00085B18E7F85B985B18D7F85B9D1DF8033CC
:1000D00021F485B1816085B90895813321F485B11A
:1000E000826085B90895CDDF08958AB1837F8AB98A
:1000F0008BB18C608BB984B1836084B9E1ECF0E0A2
:100100008081806880838DB383608DBBE9E6F0E0F9
:1001100080818A608083789408951F920F920FB631
:100120000F9211242F933F934F935F936F937F937D
:100130008F939F93AF93BF93EF93FF93C1DFFF9193
:10014000EF91BF91AF919F918F917F916F915F914F
:100150004F913F912F910F900FBE0F901F901895C8
:100160001F920F920FB60F9211242F933F934F932C
:100170005F936F937F938F939F93AF93BF93EF930F
:10018000FF938FE26EDF81E36CDFFF91EF91BF9110
:10019000AF919F918F917F916F915F914F913F911F
:1001A0002F910F900FBE0F901F9018951F920F92D6
:1001B0000FB60F9211242F933F934F935F936F933A
:1001C0007F938F939F93AF93BF93EF93FF938FE2B0
:1001D00048DF80E346DFFF91EF91BF91AF919F91A0
:1001E0008F917F916F915F914F913F912F910F90E0
:1001F0000FBE0F901F90189578DF43DF24DFFFCFED
:04020000F894FFCFA0
:00000001FF
