S01700004763634170706C69636174696F6E312E737265635B
S113000012C019C019C017C016C015C014C013C03F
S113001012C011C010C00FC00EC00DC00CC00BC068
S11300200AC009C008C011241FBECFE5D4E0DEBF5A
S1130030CDBF33D04DC0E4CF1F920F920FB60F92B5
S113004011242F938F939F9385B3816085BB2FE1F8
S11300508FEB92E0215080409040E1F700C0000017
S113006085B38E7F85BB9F918F912F910F900FBE8B
S11300700F901F90189586B3883029F418BA88B366
S1130080816088BB03C088B3880F88BB8FE493EC7E
S11300900197F1F700C0000008951BBE8BB7806C78
S11300A08BBF15BE85B7886085BF789411BA12BA24
S11300B082B3886082BB8FEF87BB18BA88B3816034
S11300C088BB14BA84B3816084BB15BAD4DFFECF75
S10700D0F894FFCFCE
S9030000FC
