:100000000C9434000C9451000C9451000C94510049
:100010000C9451000C9451000C9451000C9451001C
:100020000C9451000C9451000C9451000C9451000C
:100030000C9451000C9451000C9451000C945100FC
:100040000C9451000C9451000C9451000C945100EC
:100050000C9451000C9451000C9451000C945100DC
:100060000C9451000C94510011241FBECFEFD8E026
:10007000DEBFCDBF11E0A0E0B1E0E4E9F2E002C0F4
:1000800005900D92A832B107D9F721E0A8E2B1E0BE
:1000900001C01D92A832B207E1F70E9437010C940B
:1000A00048010C9400008091BC008823E4F7089577
:1000B00084EA8093BC000E945300089584E98093F1
:1000C000BC0008958093BB0084E88093BC000E942C
:1000D00053000895CF93C82F84600E943A018C2F5B
:1000E0008B7F0E943A01CF910895CF93DF93C82F61
:1000F000611102C0D0E001C0D1E08C2F807F8D2B38
:100100000E946A0020E1C29FC00111248D2B0E9431
:100110006A00DF91CF9108950F931F93CF938C01C5
:10012000C0E004C061E00E947500CF5FF801EC0FF1
:10013000F11D80818111F6CFCF911F910F9108950C
:1001400090E4899F600D1124862F60E080680E94F2
:10015000750080E18A95F1F700C008951F93CF9351
:10016000DF93CDB7DEB760970FB6F894DEBF0FBE52
:10017000CDBF80E1E0E0F1E0DE01119601900D924B
:100180008A95E1F760E080E40E94750010E00BC002
:10019000E1E0F0E0EC0FFD1FE10FF11D61E0808177
:1001A0000E9475001F5F103198F360E080E00E94AC
:1001B000A00060960FB6F894DEBF0FBECDBFDF91F2
:1001C000CF911F9108958FE097E20197F1F700C05A
:1001D000000080E30E946A0081EE94E00197F1F74D
:1001E00000C0000080E30E946A0092E39A95F1F754
:1001F00080E30E946A0080E18A95F1F700C080E206
:100200000E946A0090E19A95F1F700C060E088E2F0
:100210000E94750080E18A95F1F700C060E08CE0F3
:100220000E94750090E19A95F1F700C060E081E0CE
:100230000E94750083EF91E00197F1F700C0000084
:1002400060E086E00E94750090E19A95F1F700C0A9
:100250000E94AE0080E191E00E948C0062E081E0AB
:100260000E94A00087E191E00E948C0008950E9406
:10027000E300FFCFCF93C82F0E94580087E20E946F
:1002800062008C2F0E9462000E945E00CF91089550
:04029000F894FFCF10
:10029400040E041F040A1100040E150E040A0A00B9
:1002A400636F756E743D00484F4C6120416D696702
:0802B4006F73210020202000DF
:00000001FF
