S01700004763634170706C69636174696F6E312E737265635B
S113000012C0F4C02EC12AC0AFC028C027C026C069
S113001025C024C023C022C021C020C01FC01EC0D0
S11300201DC01CC01BC011241FBECFE5D4E0DEBF21
S1130030CDBF10E0A0E6B0E0E4E6FBE002C005902E
S11300400D92AC37B107D9F720E0ACE7B0E001C0BE
S11300501D92A438B207E1F75ED182C5D1CF8A30B0
S113006030F4E82FF0E0E05AFF4F8081089580E0FB
S1130070089581E0E5D20895FF920F931F93CF93E3
S1130080DF93CDB7DEB728970FB6F894DEBF0FBE67
S1130090CDBF9DEC899F212D11242695269526956B
S11300A02983220F322F330F330F230F821B8A83AE
S11300B0699F812D11248695869586958B83880F5B
S11300C0982F990F990F890F681B6C83F12C12C01C
S11300D00F2D10E0E1E0F0E0EC0FFD1FE00FF11F49
S11300E08081BDDFE5E0F0E0EC0FFD1FE00FF11FC4
S11300F08083F39483E08F1558F740E064E0CE01E9
S1130100059605D328960FB6F894DEBF0FBECDBF73
S1130110DF91CF911F910F91FF900895E199FECF48
S113012090E09FBB8EBB6DBB8CB384608CBB8CB3E7
S113013082608CBB0895E199FECF90E09FBB8EBB9B
S11301408CB381608CBB8DB3089580917C008A3020
S113015050F00ED281E083BD82B58830E9F785B7CF
S1130160806885BF889508951F920F920FB60F92ED
S113017011242F933F934F935F936F937F938F93A8
S11301809F93AF93BF93EF93FF9314BC98B382E014
S1130190892788BB80917F008F5F80937F00809147
S11301A07C008F5F80937C006AE670E08FE790E0CC
S11301B04ED16BE670E08AE690E054D14BE650E015
S11301C06AE670E08FE790E058D1FF91EF91BF911C
S11301D0AF919F918F917F916F915F914F913F91DB
S11301E02F910F900FBE0F901F9018951F920F9292
S11301F00FB60F9211242F933F934F935F936F93F6
S11302007F938F939F93AF93BF93EF93FF9385B7A0
S11302108F7785BF60916B0060937E0080916A0048
S113022080937D0080E07ADF60917D0081E076DF5D
S113023020DF60917D0080917E001EDF10927C00A3
S1130240FF91EF91BF91AF919F918F917F916F91AA
S11302505F914F913F912F910F900FBE0F901F9080
S113026018951F920F920FB60F9211242F933F935C
S11302704F935F936F937F938F939F93AF93BF93AA
S1130280EF93FF9385B78F7785BFF3DE879906C019
S1130290E5D260917D0080917E00EEDE84990DC0F0
S11302A0A5D04BE650E06AE670E08FE790E0C4D05A
S11302B060916A0080916B00DFDE10927C00FF91F8
S11302C0EF91BF91AF919F918F917F916F915F91CA
S11302D04F913F912F910F900FBE0F901F90189543
S11302E082B5886082BD15BC13BC14BC85B585601D
S11302F085BD82B58830E9F788B7806C88BF89B737
S1130300806489BF08958BB7806C8BBF11BA82B3A8
S11303108C6F82BB089588B1806888B9E1DFF3DF10
S1130320789480E008DF80937E0081E004DF80938E
S11303307D00B5D081E084D160916A0080916B002A
S11303409BDE85B78F78806385BF87B3826087BB68
S113035088B38D7F88BBF9DEFECF80D24AE067E5A3
S113036074E080E090E013D32FE986E891E0215017
S113037080409040E1F700C000000895861710F413
S11303808F5F089580E00895882311F06FEF680F60
S1130390862F0895859908C01092800067E18091A6
S11303A08200ECDF80938200869908C0109280005E
S11303B067E180918200E8DF809382000895859947
S11303C009C088E0809380006BE380918100D6DFD0
S11303D080938100869909C088E0809380006BE354
S11303E080918100D1DF8093810008951092820072
S11303F010928100B2DF1AC080918000883010F41E
S1130400C9DF01C0DCDF809180008F5F80938000B2
S11304102FE986E891E0215080409040E1F700C048
S11304200000609181008091820026DE849BE4CFED
S11304301092800092DF0895FC0110828091810067
S1130440FB01808380918200FA0180830895FC017E
S113045020812C3330F0FB0120812F5F2083FC01AD
S113046010820895FC0120812C3330F0FB0120819F
S11304702F5F2083FC0110820895FC01DA019C9116
S1130480973161F4DB018C918B3340F080818B33A5
S113049028F0DA011C92DB011C921082089584B3C7
S11304A08F7E84BB84B38F7D84BB85B38F7C85BBF7
S11304B084B3806184BB82E48A95F1F700C090E044
S11304C020E41DC084B3806284BB81E28A95F1F785
S11304D0000020FF04C084B38F7E84BB03C084B3B8
S11304E0806184BB81E28A95F1F7000084B38F7D3B
S11304F084BB82E48A95F1F700C026959F5F98300B
S113050008F384B3806284BB84B38F7E84BB82E4AB
S11305108A95F1F700C084B38F7D84BB81E28A950C
S1130520F1F700009C9903C084B3806184BB81E22D
S11305308A95F1F7000084B3806284BB81E28A95D6
S1130540F1F7000084B3806184BB81E28A95F1F7FE
S1130550000084B38F7D84BB82E48A95F1F700C0E8
S113056084B38F7E84BB82E48A95F1F700C008953A
S11305708091830087708093830084B3806184BBFF
S113058082E48A95F1F700C0909183009F7090688F
S113059020E01DC084B3806284BB81E28A95F1F7B8
S11305A0000090FF04C084B38F7E84BB03C084B377
S11305B0806184BB81E28A95F1F7000084B38F7D6A
S11305C084BB82E48A95F1F700C096952F5F2830AA
S11305D008F384B3806284BB84B38F7E84BB82E4DB
S11305E08A95F1F700C084B38F7D84BB81E28A953C
S11305F0F1F700009C9903C084B3806184BB81E25D
S11306008A95F1F7000084B3806284BB81E28A9505
S1130610F1F7000084B3806184BB81E28A95F1F72D
S1130620000084B38F7D84BB82E48A95F1F700C017
S113063084B38F7E84BB82E48A95F1F700C0089569
S1130640877088608093830084B3806184BB82E474
S11306508A95F1F700C0909183009F70906820E024
S11306601DC084B3806284BB81E28A95F1F70000E7
S113067090FF04C084B38F7E84BB03C084B38061C5
S113068084BB81E28A95F1F7000084B38F7D84BB3B
S113069082E48A95F1F700C096952F5F283008F31D
S11306A084B3806284BB84B38F7E84BB82E48A95E6
S11306B0F1F700C084B38F7D84BB81E28A95F1F7A2
S11306C000009C9903C084B3806184BB81E28A9555
S11306D0F1F7000084B3806284BB81E28A95F1F76C
S11306E0000084B3806184BB81E28A95F1F7000045
S11306F084B38F7D84BB82E48A95F1F700C084B310
S11307008F7E84BB82E48A95F1F700C00895FC01D2
S113071084B3806184BB82E48A95F1F700C043709E
S1130720406C90E01DC084B3806284BB81E28A95F2
S1130730F1F7000040FF04C084B38F7E84BB03C084
S113074084B3806184BB81E28A95F1F7000084B3AD
S11307508F7D84BB82E48A95F1F700C046959F5F44
S1130760983008F384B3806284BB84B38F7E84BBE7
S113077082E48A95F1F700C084B38F7D84BB81E263
S11307808A95F1F700009C9903C084B3806184BB0F
S113079081E28A95F1F7000040E040C0DF01A40F38
S11307A0B11D3C9120E01DC094B3906294BB81E2E2
S11307B08A95F1F7000030FF04C094B39F7E94BB88
S11307C003C094B3906194BB81E28A95F1F7000071
S11307D094B39F7D94BB82E48A95F1F700C036956B
S11307E02F5F283008F384B3806284BB84B38F7E88
S11307F084BB82E48A95F1F700C094B39F7D94BBD7
S113080081E28A95F1F700009C9903C084B380616A
S113081084BB81E28A95F1F700004F5F461708F424
S1130820BDCF84B3806284BB81E28A95F1F7000076
S113083084B3806184BB81E28A95F1F7000084B3BC
S11308408F7D84BB82E48A95F1F700C084B38F7EE8
S113085084BB82E48A95F1F700C0089584B3806173
S113086084BB82E48A95F1F700C090E020EC1DC0BF
S113087084B3806284BB81E28A95F1F7000020FF93
S113088004C084B38F7E84BB03C084B3806184BB03
S113089081E28A95F1F7000084B38F7D84BB82E402
S11308A08A95F1F700C026959F5F983008F384B3CA
S11308B0806284BB84B38F7E84BB82E48A95F1F723
S11308C000C084B38F7D84BB81E28A95F1F7000078
S11308D09C9903C084B3806184BB81E28A95F1F75B
S11308E0000020E035C084B3806284BB81E28A9535
S11308F0F1F7000084B3806184BB81E28A95F1F74B
S1130900000084B38F7D84BB82E48A95F1F700C034
S11309109F5F01C090E0983030F384B3806284BB61
S113092084B38F7E84BB82E48A95F1F700C084B3DC
S11309308F7D84BB81E28A95F1F700009C9903C006
S113094084B3806184BB81E28A95F1F700002F5F54
S1130950243000F384B3806284BB81E28A95F1F78A
S1130960000084B3806184BB81E28A95F1F70000C2
S113097084B38F7D84BB82E48A95F1F700C084B38D
S11309808F7E84BB82E48A95F1F700C00895CF92EC
S1130990DF92EF92FF920F931F93CF93DF93CDB724
S11309A0DEB728970FB6F894DEBF0FBECDBF8B011C
S11309B09C01672B682B692B61F419821A821B82B4
S11309C08FE38C8340E064E0CE010196A0DE80E0FA
S11309D0A4C0C42ED12CCC9CF001CD9CF00DF00D04
S11309E01124CE9EB001CF9E700DDE9E700D112499
S11309F088279927861B970B092E000CAA0BBB0B83
S1130A0080179107A207B3070CF082C0403188F425
S1130A10C69EC001C79E900DD69E900D1124092E2E
S1130A20000CAA0BBB0B081719072A073B070CF08D
S1130A3071C0403139F40115110581E028073105F1
S1130A400CF06AC0D901C80133233CF488279927E4
S1130A50DC01801B910BA20BB30B6C016DD0CB019D
S1130A60E42EF12CB70168D08D83C601BF0164D098
S1130A70CB01B70161D08E83C601B7015DD0482F89
S1130A80CB01B70159D08F83488780E090E037C00D
S1130A9091110BC0482F50E0E5E0F0E0EC0FFD1F92
S1130AA0E40FF51F60816623F1F0482F50E0A5E0C4
S1130AB0B0E0AC0FBD1FA40FB51FEC91F0E0E459FA
S1130AC0FF4F60816C93911116C03323B4F44150ED
S1130AD05109E5E0F0E0EC0FFD1FE40FF51F90E491
S1130AE0908391E00BC0E5E0F0E0EC0FFD1FE40F14
S1130AF0F51F108203C091E001C091E08F5F843044
S1130B0038F240E064E0CE01059601DE80E005C0E5
S1130B1081E003C081E001C081E028960FB6F8941B
S1130B20DEBF0FBECDBFDF91CF911F910F91FF901C
S1130B30EF90DF90CF900895AA1BBB1B51E107C033
S1130B40AA1FBB1FA617B70710F0A61BB70B881F59
S1130B50991F5A95A9F780959095BC01CD010895E8
S1070B60F894FFCF33
S1130B64BF86DBCFE6EDFD87FFEF3B173F065B4F08
S10F0B74666D7D077F6F777C395E7971B8
S9030000FC
