:1000000012C0F4C042C12AC0AFC028C027C026C059
:1000100025C024C023C022C021C020C01FC01EC0D4
:100020001DC01CC01BC011241FBECFE5D4E0DEBF25
:10003000CDBF10E0A0E6B0E0ECE3FAE002C005902E
:100040000D92AC36B107D9F720E0ACE6B0E001C0C4
:100050001D92A437B207E1F772D1EEC4D1CF8A3036
:1000600030F4E82FF0E0E05AFF4F8081089580E0FF
:10007000089581E03AD30895FF920F931F93CF9391
:10008000DF93CDB7DEB728970FB6F894DEBF0FBE6B
:10009000CDBF9DEC899F212D11242695269526956F
:1000A0002983220F322F330F330F230F821B8A83B2
:1000B000699F812D11248695869586958B83880F5F
:1000C000982F990F990F890F681B6C83F12C12C020
:1000D0000F2D10E0E1E0F0E0EC0FFD1FE00FF11F4D
:1000E0008081BDDFE5E0F0E0EC0FFD1FE00FF11FC8
:1000F0008083F39483E08F1558F740E064E0CE01ED
:1001000005965AD328960FB6F894DEBF0FBECDBF22
:10011000DF91CF911F910F91FF900895E199FECF4C
:1001200090E09FBB8EBB6DBB8CB384608CBB8CB3EB
:1001300082608CBB0895E199FECF90E09FBB8EBB9F
:100140008CB381608CBB8DB3089580916C008A3034
:1001500050F063D281E083BD82B58830E9F785B77E
:10016000806885BF889508951F920F920FB60F92F1
:1001700011242F933F934F935F936F937F938F93AC
:100180009F93AF93BF93EF93FF9314BC98B382E018
:10019000892788BB80916F008F5F80936F0080916B
:1001A0006C008F5F80936C006AE670E08FE690E0F1
:1001B000A3D16BE670E08AE690E0A9D14BE650E06F
:1001C0006AE670E08FE690E0ADD1FF91EF91BF91CC
:1001D000AF919F918F917F916F915F914F913F91DF
:1001E0002F910F900FBE0F901F9018951F920F9296
:1001F0000FB60F9211242F933F934F935F936F93FA
:100200007F938F939F93AF93BF93EF93FF93CF937E
:10021000DF9300D000D0CDB7DEB785B78F7785BF2D
:1002200060916B0060936E0080916A0080936D0016
:1002300080E074DF60916D0081E070DF1ADF89E794
:10024000898387E78A8388E78B838FE08C8340E00C
:1002500064E0CE010196B0D210926C000F900F9026
:100260000F900F90DF91CF91FF91EF91BF91AF91E0
:100270009F918F917F916F915F914F913F912F91BE
:100280000F900FBE0F901F9018951F920F920FB6F0
:100290000F9211242F933F934F935F936F937F930C
:1002A0008F939F93AF93BF93EF93FF9385B78F7710
:1002B00085BF879906C0DDDE60916D0080916E007C
:1002C000DBDE84990EC0D5DEBBD04BE650E06AE69B
:1002D00070E08FE690E005D160916A0080916B003C
:1002E000CBDE10926C00FF91EF91BF91AF919F9187
:1002F0008F917F916F915F914F913F912F910F90CF
:100300000FBE0F901F90189582B5886082BD15BCF6
:1003100013BC14BC85B5856085BD82B58830E9F70E
:1003200088B7806C88BF89B7806489BF08958BB710
:10033000806C8BBF11BA82B38C6F82BB0895CF9350
:10034000DF9300D000D0CDB7DEB788B1806888B920
:10035000DBDFEDDF789480E0EEDE80936E0081E0FD
:10036000EADE80936D00F0D081E0BFD186E789831B
:100370008CE58A8388E38B8387E78C8340E064E0A5
:10038000CE01019619D22FE38DE093E021508040F9
:100390009040E1F700C0000060916A0080916B001E
:1003A0006BDE85B78F78806385BF87B3826087BB3C
:1003B00088B38D7F88BBC9DEFECF2FE38DE093E04D
:1003C000215080409040E1F700C000009CD2089589
:1003D000861710F48F5F089580E00895882311F048
:1003E0006FEF680F862F0895859908C010927000EE
:1003F00067E180917200ECDF80937200869908C0FB
:100400001092700067E180917200E8DF80937200C3
:100410000895859909C088E0809370006BE380910E
:100420007100D6DF80937100869909C088E08093BF
:1004300070006BE380917100D1DF809371000895AB
:10044000CF93DF93CDB7DEB728970FB6F894DEBF12
:100450000FBECDBF10927200109271008DE68D8399
:100460008BE78E8388E78F83888740E064E0CE0146
:100470000596A2D1A2DF1AC080917000883010F4D6
:10048000B3DF01C0C6DF809170008F5F8093700082
:100490002FE986E891E0215080409040E1F700C0CC
:1004A00000006091710080917200E6DD849BE4CFD2
:1004B000109270008EE589838CE58A8384E58B83B6
:1004C00089E78C8340E064E0CE01019675D175DF49
:1004D00028960FB6F894DEBF0FBECDBFDF91CF9147
:1004E0000895FC01108280917100FB01808380914E
:1004F0007200FA0180830895FC0120812C3330F0D2
:10050000FB0120812F5F2083FC0110820895FC01F4
:1005100020812C3330F0FB0120812F5F2083FC01F0
:1005200010820895FC01DA019C91973161F4DB019E
:100530008C918B3340F080818B3328F0DA011C9250
:10054000DB011C921082089584B38F7E84BB84B338
:100550008F7D84BB85B38F7C85BB84B3806184BB76
:1005600082E48A95F1F700C090E020E41DC084B3D6
:10057000806284BB81E28A95F1F7000020FF04C00D
:1005800084B38F7E84BB03C084B3806184BB81E26B
:100590008A95F1F7000084B38F7D84BB82E48A954D
:1005A000F1F700C026959F5F983008F384B380620E
:1005B00084BB84B38F7E84BB82E48A95F1F700C04C
:1005C00084B38F7D84BB81E28A95F1F700009C990A
:1005D00003C084B3806184BB81E28A95F1F7000097
:1005E00084B3806284BB81E28A95F1F7000084B312
:1005F000806184BB81E28A95F1F7000084B38F7D2E
:1006000084BB82E48A95F1F700C084B38F7E84BBFB
:1006100082E48A95F1F700C0089580917300877095
:100620008093730084B3806184BB82E48A95F1F780
:1006300000C0909173009F70906820E01DC084B34B
:10064000806284BB81E28A95F1F7000090FF04C0CC
:1006500084B38F7E84BB03C084B3806184BB81E29A
:100660008A95F1F7000084B38F7D84BB82E48A957C
:10067000F1F700C096952F5F283008F384B38062AD
:1006800084BB84B38F7E84BB82E48A95F1F700C07B
:1006900084B38F7D84BB81E28A95F1F700009C9939
:1006A00003C084B3806184BB81E28A95F1F70000C6
:1006B00084B3806284BB81E28A95F1F7000084B341
:1006C000806184BB81E28A95F1F7000084B38F7D5D
:1006D00084BB82E48A95F1F700C084B38F7E84BB2B
:1006E00082E48A95F1F700C008958770886080934E
:1006F000730084B3806184BB82E48A95F1F700C003
:10070000909173009F70906820E01DC084B3806258
:1007100084BB81E28A95F1F7000090FF04C084B3A6
:100720008F7E84BB03C084B3806184BB81E28A95E1
:10073000F1F7000084B38F7D84BB82E48A95F1F7E2
:1007400000C096952F5F283008F384B3806284BB85
:1007500084B38F7E84BB82E48A95F1F700C084B3B2
:100760008F7D84BB81E28A95F1F700009C9903C0DC
:1007700084B3806184BB81E28A95F1F7000084B381
:10078000806284BB81E28A95F1F7000084B38061C6
:1007900084BB81E28A95F1F7000084B38F7D84BB2E
:1007A00082E48A95F1F700C084B38F7E84BB82E433
:1007B0008A95F1F700C00895FC0184B3806184BB81
:1007C00082E48A95F1F700C04370406C90E01DC050
:1007D00084B3806284BB81E28A95F1F7000040FF18
:1007E00004C084B38F7E84BB03C084B3806184BBA8
:1007F00081E28A95F1F7000084B38F7D84BB82E4A7
:100800008A95F1F700C046959F5F983008F384B34E
:10081000806284BB84B38F7E84BB82E48A95F1F7C7
:1008200000C084B38F7D84BB81E28A95F1F700001C
:100830009C9903C084B3806184BB81E28A95F1F7FF
:10084000000040E040C0DF01A40FB11D3C9120E05A
:100850001DC094B3906294BB81E28A95F1F70000C9
:1008600030FF04C094B39F7E94BB03C094B39061E7
:1008700094BB81E28A95F1F7000094B39F7D94BB0D
:1008800082E48A95F1F700C036952F5F283008F38F
:1008900084B3806284BB84B38F7E84BB82E48A95F8
:1008A000F1F700C094B39F7D94BB81E28A95F1F784
:1008B00000009C9903C084B3806184BB81E28A9567
:1008C000F1F700004F5F461708F4BDCF84B3806294
:1008D00084BB81E28A95F1F7000084B3806184BB18
:1008E00081E28A95F1F7000084B38F7D84BB82E4B6
:1008F0008A95F1F700C084B38F7E84BB82E48A9529
:10090000F1F700C0089584B3806184BB82E48A95C6
:10091000F1F700C090E020EC1DC084B3806284BB7E
:1009200081E28A95F1F7000020FF04C084B38F7E36
:1009300084BB03C084B3806184BB81E28A95F1F7F4
:10094000000084B38F7D84BB82E48A95F1F700C0F8
:1009500026959F5F983008F384B3806284BB84B38C
:100960008F7E84BB82E48A95F1F700C084B38F7DCB
:1009700084BB81E28A95F1F700009C9903C084B39F
:10098000806184BB81E28A95F1F7000020E035C0E8
:1009900084B3806284BB81E28A95F1F7000084B35E
:1009A000806184BB81E28A95F1F7000084B38F7D7A
:1009B00084BB82E48A95F1F700C09F5F01C090E09C
:1009C000983030F384B3806284BB84B38F7E84BB61
:1009D00082E48A95F1F700C084B38F7D84BB81E205
:1009E0008A95F1F700009C9903C084B3806184BBB1
:1009F00081E28A95F1F700002F5F243000F384B381
:100A0000806284BB81E28A95F1F7000084B3806143
:100A100084BB81E28A95F1F7000084B38F7D84BBAB
:100A200082E48A95F1F700C084B38F7E84BB82E4B0
:0C0A30008A95F1F700C00895F894FFCFFC
:0C0A3C00BF86DBCFE6EDFD87FFEF220D4B
:00000001FF
