S01700004763634170706C69636174696F6E312E737265635B
S113000012C019C018C017C016C015C014C013C040
S113001012C011C010C00FC00EC00DC00CC00BC068
S11300200AC009C008C011241FBECFE5D4E0DEBF5A
S1130030CDBF64D06CC0E4CF84B3806184BB89EF4E
S113004090E00197F1F700C0000084B3806284BBA4
S1130050089584B3806184BB89EF90E00197F1F740
S113006000C0000084B38F7D84BB89EF90E00197CA
S1130070F1F700C0000084B38F7E84BB089598E03C
S113008024C0282F30E0092E02C0359527950A9404
S1130090E2F720FF04C024B32F7E24BB03C024B3A3
S11300A0206124BBE9EFF0E03197F1F700C00000D4
S11300B024B32F7D24BBE9EFF0E03197F1F700C0C2
S11300C0000024B3206224BB91509111DACF84B391
S11300D08F7E84BB89EF90E00197F1F700C00000A8
S11300E084B38F7D84BBE9EFF0E03197F1F700C072
S11300F0000084B3806284BB80E008959DDF88E3C0
S1130100BEDF8EE0BCDF86E0BADFA3DFFFCFF8946A
S1050110FFCF1B
S9030000FC
