S01700004763634170706C69636174696F6E312E737265635B
S113000012C0EFC028C12AC0AEC028C027C026C075
S113001025C024C023C022C021C020C01FC01EC0D0
S11300201DC01CC01BC011241FBECFE5D4E0DEBF21
S1130030CDBF10E0A0E6B0E0E2EDF6E002C005902E
S11300400D92AC36B107D9F720E0ACE6B0E001C0C0
S11300501D92AF36B207E1F726D139C3D1CF8A302A
S113006030F4E82FF0E0E05AFF4F8081089580E0FB
S1130070089581E01ED20895FF920F931F93CF93AA
S1130080DF93CDB7DEB728970FB6F894DEBF0FBE67
S1130090CDBF54D01DEC819F812D1124869586956A
S11300A0869589834BD0819F912D112496959695A1
S11300B09695990F292F220F220F920F891B8A835D
S11300C040D0819F812D11248695869586958B83BA
S11300D038D0819F112D1124169516951695110F60
S11300E0912F990F990F190F811B8C83F12C12C03A
S11300F00F2D10E0E1E0F0E0EC0FFD1FE00FF11F29
S11301008081ADDFE5E0F0E0EC0FFD1FE00FF11FB3
S11301108083F39483E08F1558F740E064E0CE01C8
S113012005962ED228960FB6F894DEBF0FBECDBF2B
S1130130DF91CF911F910F91FF90089580916B00F3
S1130140089580916A00089580916C008A3050F07F
S113015048D181E083BD82B58830E9F785B78068EE
S113016085BF889508951F920F920FB60F921124A0
S11301702F933F934F935F936F937F938F939F93AB
S1130180AF93BF93EF93FF9314BC80916D008E5F88
S113019080936D0080916C008E5F80936C006AE6A2
S11301A070E08DE690E08FD06BE670E08AE690E038
S11301B095D04BE650E06AE670E08DE690E099D089
S11301C0FF91EF91BF91AF919F918F917F916F912B
S11301D05F914F913F912F910F900FBE0F901F9001
S11301E018951F920F920FB60F9211242F933F93DD
S11301F04F935F936F937F938F939F93AF93BF932B
S1130200EF93FF9385B78F7785BF6AE670E08DE63D
S113021090E059D06BE670E08AE690E05FD04BE660
S113022050E06AE670E08DE690E063D010926C00D6
S113023020DF22DFFF91EF91BF91AF919F918F91CA
S11302407F916F915F914F913F912F910F900FBECE
S11302500F901F9018951F920F920FB60F921124B2
S11302600F900FBE0F901F90189582B5886082BDC5
S113027015BC13BC14BC85B5866085BD82B58830B9
S1130280E9F788B7806C88BF89B7806489BF08950F
S11302908BB7806C8BBF85B7886085BF11BA82B37A
S11302A08C6782BB089588B1806888B9DEDFF0DF8F
S11302B078942ED081E0FDD0DFDE85B78F7880631F
S11302C085BF42DFFECFFC0120812C3330F0FB01DF
S11302D020812F5F2083FC0110820895FC0120817E
S11302E02C3330F0FB0120812F5F2083FC0110822E
S11302F00895FC01DA019C91973149F4DB018C915A
S11303008C3328F0DA011C92DB011C9210820895D0
S113031084B38F7E84BB84B38F7D84BB85B38F7C91
S113032085BB84B3806184BB82E48A95F1F700C005
S113033090E020E41DC084B3806284BB81E28A958E
S1130340F1F7000020FF04C084B38F7E84BB03C098
S113035084B3806184BB81E28A95F1F7000084B3A1
S11303608F7D84BB82E48A95F1F700C026959F5F58
S1130370983008F384B3806284BB84B38F7E84BBDB
S113038082E48A95F1F700C084B38F7D84BB81E257
S11303908A95F1F700009C9903C084B3806184BB03
S11303A081E28A95F1F7000084B3806284BB81E224
S11303B08A95F1F7000084B3806184BB81E28A9559
S11303C0F1F7000084B38F7D84BB82E48A95F1F752
S11303D000C084B38F7E84BB82E48A95F1F700C0A9
S11303E0089580916E00877080936E0084B380615D
S11303F084BB82E48A95F1F700C090916E009F70EF
S1130400906820E01DC084B3806284BB81E28A9539
S1130410F1F7000090FF04C084B38F7E84BB03C057
S113042084B3806184BB81E28A95F1F7000084B3D0
S11304308F7D84BB82E48A95F1F700C096952F5F87
S1130440283008F384B3806284BB84B38F7E84BB7A
S113045082E48A95F1F700C084B38F7D84BB81E286
S11304608A95F1F700009C9903C084B3806184BB32
S113047081E28A95F1F7000084B3806284BB81E253
S11304808A95F1F7000084B3806184BB81E28A9588
S1130490F1F7000084B38F7D84BB82E48A95F1F781
S11304A000C084B38F7E84BB82E48A95F1F700C0D8
S11304B008958770886080936E0084B3806184BBE4
S11304C082E48A95F1F700C090916E009F70906865
S11304D020E01DC084B3806284BB81E28A95F1F779
S11304E0000090FF04C084B38F7E84BB03C084B338
S11304F0806184BB81E28A95F1F7000084B38F7D2B
S113050084BB82E48A95F1F700C096952F5F28306A
S113051008F384B3806284BB84B38F7E84BB82E49B
S11305208A95F1F700C084B38F7D84BB81E28A95FC
S1130530F1F700009C9903C084B3806184BB81E21D
S11305408A95F1F7000084B3806284BB81E28A95C6
S1130550F1F7000084B3806184BB81E28A95F1F7EE
S1130560000084B38F7D84BB82E48A95F1F700C0D8
S113057084B38F7E84BB82E48A95F1F700C008952A
S1130580FC0184B3806184BB82E48A95F1F700C0E6
S11305904370406C90E01DC084B3806284BB81E2F0
S11305A08A95F1F7000040FF04C084B38F7E84BBBA
S11305B003C084B3806184BB81E28A95F1F70000B3
S11305C084B38F7D84BB82E48A95F1F700C046959D
S11305D09F5F983008F384B3806284BB84B38F7EBA
S11305E084BB82E48A95F1F700C084B38F7D84BB19
S11305F081E28A95F1F700009C9903C084B380617D
S113060084BB81E28A95F1F7000040E040C0DF013D
S1130610A40FB11D3C9120E01DC094B3906294BB23
S113062081E28A95F1F7000030FF04C094B39F7E05
S113063094BB03C094B3906194BB81E28A95F1F7B3
S1130640000094B39F7D94BB82E48A95F1F700C0C7
S113065036952F5F283008F384B3806284BB84B35B
S11306608F7E84BB82E48A95F1F700C094B39F7DAA
S113067094BB81E28A95F1F700009C9903C084B38E
S1130680806184BB81E28A95F1F700004F5F4617D1
S113069008F4BDCF84B3806284BB81E28A95F1F70C
S11306A0000084B3806184BB81E28A95F1F7000085
S11306B084B38F7D84BB82E48A95F1F700C084B350
S11306C08F7E84BB82E48A95F1F700C00895F89484
S10506D0FFCF56
S10F06D2BF86DBCFE6EDFD87FFEF050CD3
S9030000FC
