:1000000012C0BFC2F1C22AC029C028C027C026C062
:1000100061C224C023C022C021C020C01FC01EC096
:100020001DC01CC01BC011241FBECFE5D4E0DEBF25
:10003000CDBF10E0A0E6B0E0ECEFFEE002C005901E
:100040000D92A83AB107D9F721E0A8EAB0E001C0C3
:100050001D92A430B207E1F7F2D24EC7D1CF11B84A
:1000600080E280B9089594EA96BF06B607FEFDCFF8
:1000700091B1987F983011F0903171F483B984E890
:1000800086BF06B607FEFDCF81B1887F883131F08B
:10009000803431F480E0089581E0089580E008958F
:1000A00081E0089584E986BF06B604FCFDCF08957B
:1000B00083B984E886BF06B607FEFDCF81B1887F8D
:1000C000883211F081E0089580E00895CF9388236D
:1000D00031F08091A80081608093A80005C08091D4
:1000E000A8008E7F8093A8008091A80082608093F2
:1000F000A8006091A80080E0FDD262E080E040D3DB
:1001000000C064E080E0DFD2C82FC295C07F62E00B
:1001100080E039D300C062E080E032D300C064E008
:1001200080E0D1D28F70C82B62E080E02CD38C2F7E
:10013000CF91089580E0CADF8823E4F384E090E063
:100140000197F1F780E0C2DF089562E080E018D304
:1001500000C062E080E017D30895CF93C82F6623D4
:1001600031F08091A80081608093A80005C0809143
:10017000A8008E7F8093A8008091A8008D7F809337
:10018000A8006091A80080E0B5D28091A8008F7788
:100190008093A8008091A8008F7B8093A800809115
:1001A000A8008F7D8093A8008091A8008F7E809307
:1001B000A800CC232CF48091A80080688093A8002C
:1001C000C6FF05C08091A80080648093A800C5FF89
:1001D00005C08091A80080628093A800C4FF05C07C
:1001E0008091A80080618093A8006091A80080E0C1
:1001F00081D2ABDF8091A8008F778093A800809197
:10020000A8008F7B8093A8008091A8008F7D8093A9
:10021000A8008091A8008F7E8093A800C3FF05C02E
:100220008091A80080688093A800C2FF05C08091DB
:10023000A80080648093A800C1FF05C08091A80039
:1002400080628093A800C0FF05C08091A8008061F3
:100250008093A8006091A80080E04CD276DF809166
:10026000A80080618093A8008091A800806280939C
:10027000A8008091A80080648093A8008091A800C5
:1002800080688093A8006091A80080E033D2CF916D
:100290000895CF93C82F4EDF60E08C2F5EDFCF91A3
:1002A000089581E0F6DF089582E0F3DF0895CF93AB
:1002B000C82F40DFCA3041F4803410F480E401C01C
:1002C00080E08058E6DF0FC0803121F460E080ECF0
:1002D00044DF05C0803519F460E080E83EDF2ADFA6
:1002E00061E08C2F3ADFCF910895CF93DF93FC012B
:1002F00002C0DDDFFE01EF01219680818111F9CF7F
:10030000DF91CF9108951F93CF93DF93182FCBD117
:100310001092A8006091A80080E0ECD180E09DE7F9
:100320000197F1F78091A80080628093A8008091E6
:10033000A80080618093A8006091A80080E0DAD1D5
:1003400004DF80E097E20197F1F7FFDEC0E8D0E03C
:10035000CE010197F1F7F9DECE010197F1F7809117
:10036000A8008F7E8093A8006091A80080E0C2D191
:10037000ECDE2197F1F788E28CDF88E08ADF91DFFD
:1003800086E087DF812F85DFDF91CF911F91089570
:100390006091AF007091B0008091B1009091B20077
:1003A00020E030E040E752E4A7D288238CF080912F
:1003B00060009091610001969093610080936000CD
:1003C0001092AF001092B0001092B1001092B200E3
:1003D0008091600090916100CC976CF080916200F8
:1003E0009091630001969093630080936200109255
:1003F00061001092600080916200909163004797C5
:10040000B1F48091600090916100CC9784F01092DB
:1004100063001092620010926100109260001092CE
:10042000AF001092B0001092B1001092B200089587
:1004300080916000909161008A30910554F4209180
:100440006200309163002A30310534F026E830E054
:1004500005C026E830E002C024E630E08A3091058D
:100460004CF440916200509163004A30510514F001
:1004700026E730E08A3091054CF0409162005091BF
:1004800063004A30510514F427E830E08A309105C2
:100490004CF040916200509163004A30510514F0D5
:1004A00028E930E09F938F93809163008F93809130
:1004B00062008F933F932F9384EB90E09F938F93F1
:1004C00043D28DB79EB708960FB6F8949EBF0FBE65
:1004D0008DBF08951F920F920FB60F9211242F9384
:1004E0003F934F935F936F937F938F939F93AF93BC
:1004F000BF93EF93FF938EB58B7F8EBD8EB58460D7
:100500008EBD98B382E0892788BB27E337E346E0B6
:1005100050E46091AF007091B0008091B100909173
:10052000B20035D16093AF007093B0008093B100FA
:100530009093B20027E337E346E050E46091AB00CC
:100540007091AC008091AD009091AE0020D160938D
:10055000AB007093AC008093AD009093AE0018DFB9
:10056000FF91EF91BF91AF919F918F917F916F918B
:100570005F914F913F912F910F900FBE0F901F9061
:1005800018951F920F920FB60F9211242F933F933D
:100590004F935F936F937F938F939F93AF93BF938B
:1005A000EF93FF9388B3816088BB1092AB001092E9
:1005B000AC001092AD001092AE00EADE72DE38DFC1
:1005C00084EB90E092DEFF91EF91BF91AF919F910C
:1005D0008F917F916F915F914F913F912F910F90EC
:1005E0000FBE0F901F9018951F920F920FB60F928B
:1005F00011242F933F934F935F936F937F938F9328
:100600009F93AF93BF93EF93FF93849907C081E0CB
:1006100090E09093AA008093A90043DEFF91EF91B0
:10062000BF91AF919F918F917F916F915F914F910A
:100630003F912F910F900FBE0F901F90189589B783
:10064000846089BF78948EB584608EBD15BE8BB7EB
:10065000806C8BBF11BA82B38C6782BB85B7806810
:1006600085BF87B3836087BB88B3836088BB8CE01A
:100670004ADE1ADE16DEDCDE84EB90E036DE6091C8
:10068000AB007091AC008091AD009091AE0020E085
:1006900030E040E251E430D188238CF388B38E7F80
:1006A00088BB8895ECCFDBDC8AE18A95F1F700C046
:1006B00080E006C0E82FF0E0ED54FF4F10828F5F1E
:1006C0008823C1F30895811111C0683088F4E82FA0
:1006D000F0E0ED54FF4F8081082E000C990B02C012
:1006E000959587956A95E2F7817008958FEF089543
:1006F0008FEF0895CF9381110EC0C62FE82FF0E041
:10070000ED54FF4F6083895D880FADDC8C2FD0DC0A
:10071000C9DC80E001C08FEFCF910895CF93DF93C4
:10072000811128C0683040F5282F30E0F901ED54E0
:10073000FF4F9081442349F0C1E0D0E002C0CC0FCC
:10074000DD1F6A95E2F7C92B09C0C1E0D0E002C005
:10075000CC0FDD1F6A95E2F7C095C923F901ED546E
:10076000FF4FC083895D880F7EDC8C2FA1DC9ADC73
:1007700080E003C08FEF01C08FEFDF91CF9108952C
:1007800041E0CCDF089540E0C9DF08955058BB2711
:10079000AA270ED077C068D030F06DD020F031F4A9
:1007A0009F3F11F41EF45DC00EF4E095E7FB53C0CB
:1007B000E92F79D080F3BA1762077307840795078A
:1007C00018F071F49EF591C00EF4E0950B2EBA2F3F
:1007D000A02D0B01B90190010C01CA01A001112447
:1007E000FF27591B99F0593F50F4503E68F11A16F3
:1007F000F040A22F232F342F4427585FF3CF469584
:1008000037952795A795F0405395C9F77EF41F16A5
:10081000BA0B620B730B840BBAF09150A1F0FF0F6F
:10082000BB1F661F771F881FC2F70EC0BA0F621F5B
:10083000731F841F48F4879577956795B795F7954B
:100840009E3F08F0B3CF9395880F08F09927EE0FDD
:1008500097958795089597F99F6780E870E060E025
:1008600008959FEF80EC089500240A941616170649
:1008700018060906089500240A9412161306140691
:1008800005060895092E0394000C11F4882352F0F4
:10089000BB0F40F4BF2B11F460FF04C06F5F7F4FAC
:1008A0008F4F9F4F089557FD9058440F551F59F093
:1008B0005F3F71F04795880F97FB991F61F09F3F4D
:1008C00079F087950895121613061406551FF2CF76
:1008D0004695F1DF08C0161617061806991FF1CFC6
:1008E00086957105610508940895E894BB276627ED
:1008F0007727CB0197F9089503D008F48FEF089577
:10090000990F0008550FAA0BE0E8FEEF1616170620
:10091000E807F907C0F012161306E407F50798F088
:10092000621B730B840B950B39F40A2661F0232BA1
:10093000242B252B21F408950A2609F4A140A6951D
:100940008FEF811D811D0895AEE0B0E0E9EAF4E08B
:10095000AAC20D891E8986E08C831A8309838FEFD2
:100960009FE79E838D83AE01475E5F4F6F89788DD1
:10097000CE01019608D0EF81F885E00FF11F1082BB
:100980002E96E4E0ACC2ABE0B0E0E8ECF4E07DC26F
:100990006C017B018A01FC0117821682838181FF31
:1009A000BFC1CE0101963C01F6019381F70193FD91
:1009B000859193FF81917F01882309F4ADC1853230
:1009C00039F493FD859193FF81917F01853221F464
:1009D000B60190E0C0D1E8CF912C212C312CFFE161
:1009E000F315D8F08B3279F038F4803279F0833215
:1009F000A1F4232D20611DC08D3261F0803369F494
:100A0000232D216016C0832D8260382EE32DE460F3
:100A10003E2E2AC0F32DF8601DC037FC2DC020EDFE
:100A2000280F2A3040F08E32B9F436FC75C1232DE0
:100A30002064322E19C036FE06C08AE0989E200D32
:100A40001124922E11C0EAE02E9E200D1124222E98
:100A5000F32DF0623F2E08C08C3621F4832D806880
:100A6000382E02C0883641F4F70193FD859193FF3B
:100A700081917F018111B3CF982F9F7D9554933041
:100A800028F40C5F1F4F9FE399830DC0833631F02C
:100A9000833771F0833509F055C020C0F80180819B
:100AA00089830E5F1F4F88248394912C530112C0B9
:100AB0002801F2E04F0E511CF801A080B18036FEF3
:100AC00003C0692D70E002C06FEF7FEFC50138D120
:100AD0004C018201F32DFF773F2E15C0280122E043
:100AE000420E511CF801A080B18036FE03C0692D72
:100AF00070E002C06FEF7FEFC50117D14C01F32DFD
:100B0000F0683F2E820133FC19C0822D90E08816D8
:100B10009906A0F4B60180E290E01DD12A94F5CFA9
:100B2000F50137FC859137FE81915F01B60190E0B8
:100B300012D121102A9421E0821A91088114910483
:100B400079F7E1C0843611F0893639F5F80137FEBE
:100B500007C060817181828193810C5F1F4F08C043
:100B600060817181072E000C880B990B0E5F1F4F5F
:100B7000F32DFF763F2E97FF09C0909580957095D5
:100B800061957F4F8F4F9F4FF0683F2E2AE030E0F6
:100B9000A3011DD1882E861844C0853731F4232D3A
:100BA0002F7EB22E2AE030E025C0932D997FB92EFA
:100BB0008F36C1F018F4883579F0AEC0803719F05F
:100BC000883721F0A9C0E92FE061BE2EB4FE0DC028
:100BD000FB2DF460BF2E09C034FE0AC0292F266009
:100BE000B22E06C028E030E005C020E130E002C0AF
:100BF00020E132E0F801B7FE07C060817181828197
:100C000093810C5F1F4F06C06081718180E090E08E
:100C10000E5F1F4FA301DBD0882E8618FB2DFF77B8
:100C20003F2E36FE0DC0232D2E7FA22E891458F4A0
:100C300034FE0BC032FC09C0832D8E7EA82E05C069
:100C4000B82CA32C03C0B82C01C0B92CA4FE0FC033
:100C5000FE01E80DF11D8081803321F49A2D997EEB
:100C6000A92E09C0A2FE06C0B394B39404C08A2D75
:100C7000867809F0B394A3FC10C0A0FE06C0B2149D
:100C800080F4280C922C9B180DC0B21458F4B601B5
:100C900080E290E060D0B394F8CFB21418F42B182F
:100CA00002C0982C212CA4FE0FC0B60180E390E076
:100CB00052D0A2FE16C0A1FC03C088E790E002C09B
:100CC00088E590E0B6010CC08A2D867851F0A1FE2F
:100CD00002C08BE201C080E2A7FC8DE2B60190E089
:100CE0003AD0891430F4B60180E390E034D09A947D
:100CF000F8CF8A94F301E80DF11D8081B60190E0F0
:100D00002AD08110F6CF222009F44ECEB60180E21F
:100D100090E021D02A94F7CFF6018681978102C016
:100D20008FEF9FEF2B96E2E1CCC0FC010590615064
:100D300070400110D8F7809590958E0F9F1F0895F1
:100D4000FC016150704001900110D8F7809590959A
:100D50008E0F9F1F08950F931F93CF93DF93FB0177
:100D6000238121FD03C08FEF9FEF2CC022FF16C00F
:100D700046815781248135814217530744F4A0816D
:100D8000B1819D012F5F3F4F318320838C9326815A
:100D900037812F5F3F4F3783268314C08B01EC01CF
:100DA000FB010084F185E02D0995892BE1F6D8013E
:100DB00016968D919C911797019617969C938E93FA
:100DC0001697CE01DF91CF911F910F910895FA01EF
:100DD000AA27283051F1203181F1E8946F936E7F7A
:100DE0006E5F7F4F8F4F9F4FAF4FB1E03ED0B4E06B
:100DF0003CD0670F781F891F9A1FA11D680F791FAC
:100E00008A1F911DA11D6A0F711D811D911DA11DBC
:100E100020D009F468943F912AE0269F11243019CC
:100E2000305D3193DEF6CF010895462F4770405D67
:100E30004193B3E00FD0C9F7F6CF462F4F70405D16
:100E40004A3318F0495D31FD4052419302D0A9F771
:100E5000EACFB4E0A6959795879577956795BA956B
:100E6000C9F700976105710508959B01AC010A2E31
:100E700006945795479537952795BA95C9F7620F08
:100E8000731F841F951FA01D08952F923F924F92AC
:100E90005F926F927F928F929F92AF92BF92CF920A
:100EA000DF92EF92FF920F931F93CF93DF93CDB713
:100EB000DEB7CA1BDB0B0FB6F894DEBF0FBECDBF8B
:100EC00009942A88398848885F846E847D848C845C
:100ED0009B84AA84B984C884DF80EE80FD800C8165
:100EE0001B81AA81B981CE0FD11D0FB6F894DEBF48
:0C0EF0000FBECDBFED010895F894FFCFB8
:100EFC00220011004B6F7420656C20763A2030254F
:100F0C00643A302564004B6F7420656C20763A206F
:100F1C0025643A302564004B6F7420656C20763A5A
:100F2C00203025643A2564004B6F7420656C207664
:080F3C003A2025643A25640007
:00000001FF
