S01700004763634170706C69636174696F6E312E737265635B
S113000012C0A6C1F6C12AC029C028C027C026C074
S113001025C024C023C022C021C020C01FC01EC0D0
S11300201DC01CC01BC011241FBECFE5D4E0DEBF21
S1130030CDBF10E0A0E6B0E0ECE6FBE002C0059026
S11300400D92AC36B107D9F720E0ACE6B0E001C0C0
S11300501D92AD37B207E1F711D286C5D1CF8A30F0
S113006030F4E82FF0E0E05AFF4F8081089580E0FB
S1130070089581E0D2D30895FF920F931F93CF93F5
S1130080DF93CDB7DEB728970FB6F894DEBF0FBE67
S1130090CDBF9DEC899F212D11242695269526956B
S11300A02983220F322F330F330F230F821B8A83AE
S11300B0699F812D11248695869586958B83880F5B
S11300C0982F990F990F890F681B6C83F12C12C01C
S11300D00F2D10E0E1E0F0E0EC0FFD1FE00FF11F49
S11300E08081BDDFE5E0F0E0EC0FFD1FE00FF11FC4
S11300F08083F39483E08F1558F740E064E0CE01E9
S11301000596F2D328960FB6F894DEBF0FBECDBF86
S1130110DF91CF911F910F91FF9008952DEC829F55
S1130120212D1124269526952695322F330F932FB2
S1130130990F990F930F891B90E1299F9001112426
S1130140822B0895982F92959F7097708F70990FB6
S1130150292F220F220F920F890F089594B39360D1
S113016094BB95B3916095BB000094B3946094BB29
S113017090E021C021E030E0092E02C0220F331F9D
S11301800A94E2F7482F50E04223532324173507FB
S113019021F425B3246025BB03C025B32B7F25BBE5
S11301A025B3226025BB000025B32B7F25BB25B3D7
S11301B02D7F25BB9F5F9830E8F2089585B38E7F2D
S11301C085BB089584B38B7F84BB90E080E01FC01F
S11301D025B3226025BB9A990BC021E030E0092E9B
S11301E002C0220F331F0A94E2F72095822309C02C
S11301F021E030E0092E02C0220F331F0A94E2F7F7
S1130200822B000025B32D7F25BB00009F5F983013
S1130210F8F295B39E7F95BB00000895CF93DF93CA
S113022081E89CDFCFDF8EDFC4E7D0E0888383E8FA
S113023095DFC8DF87DF898385E890DFC3DF982FE8
S113024090729F83982F90789887903821F48F71BB
S11302508093760003C08F7380937600C4E7D0E068
S11302608A8170DF8A8387E879DFACDF6BDF8C8378
S113027089E874DFA7DF66DF8B838BE86FDFA2DF9B
S11302808E838DE86BDF9EDF5DDF8D83DF91CF9101
S113029008951F93CF93DF9380E860DFC4E7D0E035
S11302A088813CDF5BDF8ADF82E858DF898136DFC3
S11302B055DF84DF8A8132DF1F819885812B182FD7
S11302C0192B84E84BDF812F49DF78DF86E846DF8E
S11302D08C8124DF43DF72DF88E840DF8B811EDFFF
S11302E03DDF6CDF8AE83ADF8E8138DF67DF8CE838
S11302F035DF8D8113DF32DF61DFDF91CF911F9115
S11303000895E199FECF90E09FBB8EBB6DBB8CB38B
S113031084608CBB8CB382608CBB0895E199FECF62
S113032090E09FBB8EBB8CB381608CBB8DB3089572
S113033075DF8091740090E020916C00821B91091C
S11303400A972CF002D285B7806885BF88950895F6
S11303501F920F920FB60F9211242F933F934F9336
S11303605F936F937F938F939F93AF93BF93EF9319
S1130370FF93CF93DF9300D000D0CDB7DEB785B71E
S11303808F7785BF4BDFE4E7F0E0808180936C00DA
S1130390628160936E00818180936D0080E0B1DFA3
S11303A060916D0081E0ADDF64DE89E7898387E7D2
S11303B08A8388E78B838FE08C8340E064E0CE01FE
S11303C0019692D20F900F900F900F90DF91CF91E2
S11303D0FF91EF91BF91AF919F918F917F916F9119
S11303E05F914F913F912F910F900FBE0F901F90EF
S11303F018951F920F920FB60F9211242F933F93CB
S11304004F935F936F937F938F939F93AF93BF9318
S1130410EF93FF9385B78F7785BF879906C029DE51
S113042060916D0080916E0027DE84990EC021DEFC
S1130430A6D04BE650E06AE670E08FE690E0F0D09C
S113044060916A0080916B0017DEFF91EF91BF917C
S1130450AF919F918F917F916F915F914F913F9158
S11304602F910F900FBE0F901F9018958BB7806C33
S11304708BBF11BA82B38C6F82BB0895CF93DF9385
S113048000D000D0CDB7DEB7F89488B1806888B9C1
S1130490EDDF789487B3816087BB88B3816088BBC4
S11304A080E03CDF80936E0081E038DF80936D0054
S11304B0E3D081E0B2D186E789838CE58A8388E33F
S11304C08B8387E78C8340E064E0CE0101960CD2F5
S11304D02FE38DE093E0215080409040E1F700C08D
S11304E0000060916D0080916E00C6DD85B78F7845
S11304F0806385BF1DDFFECF2FE38DE093E02150A5
S113050080409040E1F700C0000095D2089586171E
S113051010F48F5F089580E00895882311F06FEF41
S1130520680F862F0895859908C01092700067E1BE
S113053080917200ECDF80937200869908C010925B
S1130540700067E180917200E8DF80937200089583
S1130550859909C088E0809370006BE380917100F5
S1130560D6DF80937100869909C088E0809370007B
S11305706BE380917100D1DF809371000895CF9374
S1130580DF93CDB7DEB728970FB6F894DEBF0FBE62
S1130590CDBF10927200109271008DE68D838BE7AF
S11305A08E8388E78F83888740E064E0CE010596D8
S11305B09BD1A2DF1AC080917000883010F4B3DFA1
S11305C001C0C6DF809170008F5F809370002FE9B7
S11305D086E891E0215080409040E1F700C000009F
S11305E0609171008091720047DD849BE4CF10928A
S11305F070008EE589838CE58A8384E58B8389E7A3
S11306008C8340E064E0CE0101966ED175DF2896BC
S11306100FB6F894DEBF0FBECDBFDF91CF91089522
S1130620EF92FF920F931F93CF93DF937C018B0183
S1130630EA01E4E7F0E01082809171008183809107
S11306407200828388E0838380E184838BE08583E6
S113065082E0868310861DDEF7011082809171008E
S1130660F8018083809172008883DF91CF911F917C
S11306700F91FF90EF90089584B38F7E84BB84B371
S11306808F7D84BB85B38F7C85BB84B3806184BB41
S113069082E48A95F1F700C090E020E41DC084B3A1
S11306A0806284BB81E28A95F1F7000020FF04C0D8
S11306B084B38F7E84BB03C084B3806184BB81E236
S11306C08A95F1F7000084B38F7D84BB82E48A9518
S11306D0F1F700C026959F5F983008F384B38062D9
S11306E084BB84B38F7E84BB82E48A95F1F700C017
S11306F084B38F7D84BB81E28A95F1F700009C99D5
S113070003C084B3806184BB81E28A95F1F7000061
S113071084B3806284BB81E28A95F1F7000084B3DC
S1130720806184BB81E28A95F1F7000084B38F7DF8
S113073084BB82E48A95F1F700C084B38F7E84BBC6
S113074082E48A95F1F700C0089580917300877060
S11307508093730084B3806184BB82E48A95F1F74B
S113076000C0909173009F70906820E01DC084B316
S1130770806284BB81E28A95F1F7000090FF04C097
S113078084B38F7E84BB03C084B3806184BB81E265
S11307908A95F1F7000084B38F7D84BB82E48A9547
S11307A0F1F700C096952F5F283008F384B3806278
S11307B084BB84B38F7E84BB82E48A95F1F700C046
S11307C084B38F7D84BB81E28A95F1F700009C9904
S11307D003C084B3806184BB81E28A95F1F7000091
S11307E084B3806284BB81E28A95F1F7000084B30C
S11307F0806184BB81E28A95F1F7000084B38F7D28
S113080084BB82E48A95F1F700C084B38F7E84BBF5
S113081082E48A95F1F700C0089587708860809318
S1130820730084B3806184BB82E48A95F1F700C0CD
S1130830909173009F70906820E01DC084B3806223
S113084084BB81E28A95F1F7000090FF04C084B371
S11308508F7E84BB03C084B3806184BB81E28A95AC
S1130860F1F7000084B38F7D84BB82E48A95F1F7AD
S113087000C096952F5F283008F384B3806284BB50
S113088084B38F7E84BB82E48A95F1F700C084B37D
S11308908F7D84BB81E28A95F1F700009C9903C0A7
S11308A084B3806184BB81E28A95F1F7000084B34C
S11308B0806284BB81E28A95F1F7000084B3806191
S11308C084BB81E28A95F1F7000084B38F7D84BBF9
S11308D082E48A95F1F700C084B38F7E84BB82E4FE
S11308E08A95F1F700C00895FC0184B3806184BB4C
S11308F082E48A95F1F700C04370406C90E01DC01B
S113090084B3806284BB81E28A95F1F7000040FFE2
S113091004C084B38F7E84BB03C084B3806184BB72
S113092081E28A95F1F7000084B38F7D84BB82E471
S11309308A95F1F700C046959F5F983008F384B319
S1130940806284BB84B38F7E84BB82E48A95F1F792
S113095000C084B38F7D84BB81E28A95F1F70000E7
S11309609C9903C084B3806184BB81E28A95F1F7CA
S1130970000040E040C0DF01A40FB11D3C9120E025
S11309801DC094B3906294BB81E28A95F1F7000094
S113099030FF04C094B39F7E94BB03C094B39061B2
S11309A094BB81E28A95F1F7000094B39F7D94BBD8
S11309B082E48A95F1F700C036952F5F283008F35A
S11309C084B3806284BB84B38F7E84BB82E48A95C3
S11309D0F1F700C094B39F7D94BB81E28A95F1F74F
S11309E000009C9903C084B3806184BB81E28A9532
S11309F0F1F700004F5F461708F4BDCF84B380625F
S1130A0084BB81E28A95F1F7000084B3806184BBE2
S1130A1081E28A95F1F7000084B38F7D84BB82E480
S1130A208A95F1F700C084B38F7E84BB82E48A95F3
S1130A30F1F700C0089584B3806184BB82E48A9591
S1130A40F1F700C090E020EC1DC084B3806284BB49
S1130A5081E28A95F1F7000020FF04C084B38F7E01
S1130A6084BB03C084B3806184BB81E28A95F1F7BF
S1130A70000084B38F7D84BB82E48A95F1F700C0C3
S1130A8026959F5F983008F384B3806284BB84B357
S1130A908F7E84BB82E48A95F1F700C084B38F7D96
S1130AA084BB81E28A95F1F700009C9903C084B36A
S1130AB0806184BB81E28A95F1F7000020E035C0B3
S1130AC084B3806284BB81E28A95F1F7000084B329
S1130AD0806184BB81E28A95F1F7000084B38F7D45
S1130AE084BB82E48A95F1F700C09F5F01C090E067
S1130AF0983030F384B3806284BB84B38F7E84BB2C
S1130B0082E48A95F1F700C084B38F7D84BB81E2CF
S1130B108A95F1F700009C9903C084B3806184BB7B
S1130B2081E28A95F1F700002F5F243000F384B34B
S1130B30806284BB81E28A95F1F7000084B380610E
S1130B4084BB81E28A95F1F7000084B38F7D84BB76
S1130B5082E48A95F1F700C084B38F7E84BB82E47B
S10F0B608A95F1F700C00895F894FFCFC7
S10F0B6CBF86DBCFE6EDFD87FFEF220D16
S9030000FC
